:030000000209CF23
:10080000AB07AA06C2B5C2A5EFF580EBAE0278072A
:10081000CEA2E713CE13D8F81392A2EAFF3395E0E5
:10082000EF1392A1EBAE027809CEA2E713CE13D854
:10083000F81392A0EBAE02780ACEA2E713CE13D83B
:10084000F81392C4EBAE02780BCEA2E713CE13D806
:10085000F81392C2EBAE02780CCEA2E713CE13D8F7
:10086000F81392C1EBAE02780DCEA2E713CE13D8E7
:10087000F81392B7EBAE02780ECEA2E713CE13D8E0
:10088000F81392B6C2A4D2A3D2A422AB07AA06C27E
:10089000B5D2A5EFF580EBAE027807CEA2E713CE76
:1008A00013D8F81392A2EAFF3395E0EF1392A1EB6D
:1008B000AE027809CEA2E713CE13D8F81392A0EBBC
:1008C000AE02780ACEA2E713CE13D8F81392C4EB87
:1008D000AE02780BCEA2E713CE13D8F81392C2EB78
:1008E000AE02780CCEA2E713CE13D8F81392C1EB68
:1008F000AE02780DCEA2E713CE13D8F81392B7EB61
:10090000AE02780ECEA2E713CE13D8F81392B6C279
:10091000A4D2A3D2A4228E0A8F0B8B828A837F0259
:100920007E00120800AF0BAE0A12088B7F037E0018
:10093000120800AF05AE0412088B7F067E00120875
:1009400000AF82AE8312088B7F077E00120800AFD3
:1009500011AE1012088B7F0F7E000208008E088FE8
:100960000975100375111F7BDF7A01E4FDFCFFFEA2
:10097000120916E4FDFC900000AF09AE0812088BC6
:10098000A3E582B420F3E583B403EE0DBD00010CB2
:10099000BC01E3BDE0E022C2B5D2A3D2A4C2B37FC2
:1009A000C87E001209B6D2B37F017E001208007F14
:1009B000107E0002088BD3EF9400EE9400400F7D70
:1009C000267C82DCFEDDFAEF1F70EB1E80E82278C9
:1009D0007FE4F6D8FD7581110209DB1209977F3893
:0509E0007E0002095D2C
:00000001FF
